{
  "contractName": "IdentityManager",
  "abi": [
    {
      "inputs": [],
      "stateMutability": "nonpayable",
      "type": "constructor"
    },
    {
      "inputs": [
        {
          "internalType": "string",
          "name": "hashed",
          "type": "string"
        },
        {
          "internalType": "uint256",
          "name": "userType",
          "type": "uint256"
        }
      ],
      "name": "addUser",
      "outputs": [],
      "stateMutability": "nonpayable",
      "type": "function"
    },
    {
      "inputs": [
        {
          "internalType": "string",
          "name": "hashed",
          "type": "string"
        },
        {
          "internalType": "address",
          "name": "userAddress",
          "type": "address"
        }
      ],
      "name": "bindAccount",
      "outputs": [],
      "stateMutability": "nonpayable",
      "type": "function"
    },
    {
      "inputs": [
        {
          "internalType": "address",
          "name": "userAddress",
          "type": "address"
        }
      ],
      "name": "getAccessManagerAddress",
      "outputs": [
        {
          "internalType": "address",
          "name": "",
          "type": "address"
        }
      ],
      "stateMutability": "view",
      "type": "function",
      "constant": true
    },
    {
      "inputs": [],
      "name": "getId",
      "outputs": [
        {
          "internalType": "string",
          "name": "",
          "type": "string"
        }
      ],
      "stateMutability": "view",
      "type": "function",
      "constant": true
    }
  ],
  "bytecode": "0x6080604052604051806020016040528073ac729d331241e90d8fb5a32944272bbe7d8af54273ffffffffffffffffffffffffffffffffffffffff1673ffffffffffffffffffffffffffffffffffffffff1681525060009060016200006592919062000139565b503480156200007357600080fd5b5060005b60008054905081101562000132576001806000808481548110620000a0576200009f620001e7565b5b9060005260206000200160009054906101000a900473ffffffffffffffffffffffffffffffffffffffff1673ffffffffffffffffffffffffffffffffffffffff1673ffffffffffffffffffffffffffffffffffffffff16815260200190815260200160002060006101000a81548160ff021916908315150217905550808062000129906200024f565b91505062000077565b506200029c565b828054828255906000526020600020908101928215620001b5579160200282015b82811115620001b45782518260006101000a81548173ffffffffffffffffffffffffffffffffffffffff021916908373ffffffffffffffffffffffffffffffffffffffff160217905550916020019190600101906200015a565b5b509050620001c49190620001c8565b5090565b5b80821115620001e3576000816000905550600101620001c9565b5090565b7f4e487b7100000000000000000000000000000000000000000000000000000000600052603260045260246000fd5b7f4e487b7100000000000000000000000000000000000000000000000000000000600052601160045260246000fd5b6000819050919050565b60006200025c8262000245565b91507fffffffffffffffffffffffffffffffffffffffffffffffffffffffffffffffff820362000291576200029062000216565b5b600182019050919050565b611eb480620002ac6000396000f3fe608060405234801561001057600080fd5b506004361061004c5760003560e01c8063098fd44e146100515780630f67573b1461006d5780631c5220c21461009d5780635d1ca631146100b9575b600080fd5b61006b600480360381019061006691906109cc565b6100d7565b005b61008760048036038101906100829190610a28565b6104af565b6040516100949190610a64565b60405180910390f35b6100b760048036038101906100b29190610ab5565b610538565b005b6100c1610738565b6040516100ce9190610b90565b60405180910390f35b600160003373ffffffffffffffffffffffffffffffffffffffff1673ffffffffffffffffffffffffffffffffffffffff16815260200190815260200160002060009054906101000a900460ff16610163576040517f08c379a000000000000000000000000000000000000000000000000000000000815260040161015a90610c24565b60405180910390fd5b6000600460008373ffffffffffffffffffffffffffffffffffffffff1673ffffffffffffffffffffffffffffffffffffffff16815260200190815260200160002080546101af90610c73565b9050146101f1576040517f08c379a00000000000000000000000000000000000000000000000000000000081526004016101e890610cf0565b60405180910390fd5b600015156005836040516102059190610d4c565b908152602001604051809103902060009054906101000a900460ff16151514610263576040517f08c379a000000000000000000000000000000000000000000000000000000000815260040161025a90610daf565b60405180910390fd5b6003826040516102739190610d4c565b908152602001604051809103902060009054906101000a900460ff166102ce576040517f08c379a00000000000000000000000000000000000000000000000000000000081526004016102c590610e1b565b60405180910390fd5b81600460008373ffffffffffffffffffffffffffffffffffffffff1673ffffffffffffffffffffffffffffffffffffffff168152602001908152602001600020908161031a9190610fe7565b50600160058360405161032d9190610d4c565b908152602001604051809103902060006101000a81548160ff021916908315150217905550600060405161036090610807565b604051809103906000f08015801561037c573d6000803e3d6000fd5b5090508073ffffffffffffffffffffffffffffffffffffffff1663f2fde38b836040518263ffffffff1660e01b81526004016103b89190610a64565b600060405180830381600087803b1580156103d257600080fd5b505af11580156103e6573d6000803e3d6000fd5b50505050806002846040516103fb9190610d4c565b908152602001604051809103902060000160006101000a81548173ffffffffffffffffffffffffffffffffffffffff021916908373ffffffffffffffffffffffffffffffffffffffff1602179055508160028460405161045b9190610d4c565b908152602001604051809103902060010160006101000a81548173ffffffffffffffffffffffffffffffffffffffff021916908373ffffffffffffffffffffffffffffffffffffffff160217905550505050565b60006002600460008473ffffffffffffffffffffffffffffffffffffffff1673ffffffffffffffffffffffffffffffffffffffff1681526020019081526020016000206040516104ff919061113c565b908152602001604051809103902060000160009054906101000a900473ffffffffffffffffffffffffffffffffffffffff169050919050565b600160003373ffffffffffffffffffffffffffffffffffffffff1673ffffffffffffffffffffffffffffffffffffffff16815260200190815260200160002060009054906101000a900460ff166105c4576040517f08c379a00000000000000000000000000000000000000000000000000000000081526004016105bb90610c24565b60405180910390fd5b6003826040516105d49190610d4c565b908152602001604051809103902060009054906101000a900460ff166107345760016003836040516106069190610d4c565b908152602001604051809103902060006101000a81548160ff02191690831515021790555060006040518060600160405280600073ffffffffffffffffffffffffffffffffffffffff168152602001600073ffffffffffffffffffffffffffffffffffffffff168152602001838152509050806002846040516106899190610d4c565b908152602001604051809103902060008201518160000160006101000a81548173ffffffffffffffffffffffffffffffffffffffff021916908373ffffffffffffffffffffffffffffffffffffffff16021790555060208201518160010160006101000a81548173ffffffffffffffffffffffffffffffffffffffff021916908373ffffffffffffffffffffffffffffffffffffffff16021790555060408201518160020155905050505b5050565b6060600460003373ffffffffffffffffffffffffffffffffffffffff1673ffffffffffffffffffffffffffffffffffffffff168152602001908152602001600020805461078490610c73565b80601f01602080910402602001604051908101604052809291908181526020018280546107b090610c73565b80156107fd5780601f106107d2576101008083540402835291602001916107fd565b820191906000526020600020905b8154815290600101906020018083116107e057829003601f168201915b5050505050905090565b610d2b8061115483390190565b6000604051905090565b600080fd5b600080fd5b600080fd5b600080fd5b6000601f19601f8301169050919050565b7f4e487b7100000000000000000000000000000000000000000000000000000000600052604160045260246000fd5b61087b82610832565b810181811067ffffffffffffffff8211171561089a57610899610843565b5b80604052505050565b60006108ad610814565b90506108b98282610872565b919050565b600067ffffffffffffffff8211156108d9576108d8610843565b5b6108e282610832565b9050602081019050919050565b82818337600083830152505050565b600061091161090c846108be565b6108a3565b90508281526020810184848401111561092d5761092c61082d565b5b6109388482856108ef565b509392505050565b600082601f83011261095557610954610828565b5b81356109658482602086016108fe565b91505092915050565b600073ffffffffffffffffffffffffffffffffffffffff82169050919050565b60006109998261096e565b9050919050565b6109a98161098e565b81146109b457600080fd5b50565b6000813590506109c6816109a0565b92915050565b600080604083850312156109e3576109e261081e565b5b600083013567ffffffffffffffff811115610a0157610a00610823565b5b610a0d85828601610940565b9250506020610a1e858286016109b7565b9150509250929050565b600060208284031215610a3e57610a3d61081e565b5b6000610a4c848285016109b7565b91505092915050565b610a5e8161098e565b82525050565b6000602082019050610a796000830184610a55565b92915050565b6000819050919050565b610a9281610a7f565b8114610a9d57600080fd5b50565b600081359050610aaf81610a89565b92915050565b60008060408385031215610acc57610acb61081e565b5b600083013567ffffffffffffffff811115610aea57610ae9610823565b5b610af685828601610940565b9250506020610b0785828601610aa0565b9150509250929050565b600081519050919050565b600082825260208201905092915050565b60005b83811015610b4b578082015181840152602081019050610b30565b60008484015250505050565b6000610b6282610b11565b610b6c8185610b1c565b9350610b7c818560208601610b2d565b610b8581610832565b840191505092915050565b60006020820190508181036000830152610baa8184610b57565b905092915050565b7f4f6e6c79206f7267616e697a6174696f6e2061646d696e6973747261746f722060008201527f63616e2063616c6c2e0000000000000000000000000000000000000000000000602082015250565b6000610c0e602983610b1c565b9150610c1982610bb2565b604082019050919050565b60006020820190508181036000830152610c3d81610c01565b9050919050565b7f4e487b7100000000000000000000000000000000000000000000000000000000600052602260045260246000fd5b60006002820490506001821680610c8b57607f821691505b602082108103610c9e57610c9d610c44565b5b50919050565b7f54686973206164647265737320616c72656164792062696e6465642e00000000600082015250565b6000610cda601c83610b1c565b9150610ce582610ca4565b602082019050919050565b60006020820190508181036000830152610d0981610ccd565b9050919050565b600081905092915050565b6000610d2682610b11565b610d308185610d10565b9350610d40818560208601610b2d565b80840191505092915050565b6000610d588284610d1b565b915081905092915050565b7f5468697320556e69717565496420616c72656164792062696e64656400000000600082015250565b6000610d99601c83610b1c565b9150610da482610d63565b602082019050919050565b60006020820190508181036000830152610dc881610d8c565b9050919050565b7f556e69717565496420696e76616c69642e000000000000000000000000000000600082015250565b6000610e05601183610b1c565b9150610e1082610dcf565b602082019050919050565b60006020820190508181036000830152610e3481610df8565b9050919050565b60008190508160005260206000209050919050565b60006020601f8301049050919050565b600082821b905092915050565b600060088302610e9d7fffffffffffffffffffffffffffffffffffffffffffffffffffffffffffffffff82610e60565b610ea78683610e60565b95508019841693508086168417925050509392505050565b6000819050919050565b6000610ee4610edf610eda84610a7f565b610ebf565b610a7f565b9050919050565b6000819050919050565b610efe83610ec9565b610f12610f0a82610eeb565b848454610e6d565b825550505050565b600090565b610f27610f1a565b610f32818484610ef5565b505050565b5b81811015610f5657610f4b600082610f1f565b600181019050610f38565b5050565b601f821115610f9b57610f6c81610e3b565b610f7584610e50565b81016020851015610f84578190505b610f98610f9085610e50565b830182610f37565b50505b505050565b600082821c905092915050565b6000610fbe60001984600802610fa0565b1980831691505092915050565b6000610fd78383610fad565b9150826002028217905092915050565b610ff082610b11565b67ffffffffffffffff81111561100957611008610843565b5b6110138254610c73565b61101e828285610f5a565b600060209050601f831160018114611051576000841561103f578287015190505b6110498582610fcb565b8655506110b1565b601f19841661105f86610e3b565b60005b8281101561108757848901518255600182019150602085019450602081019050611062565b868310156110a457848901516110a0601f891682610fad565b8355505b6001600288020188555050505b505050505050565b600081546110c681610c73565b6110d08186610d10565b945060018216600081146110eb576001811461110057611133565b60ff1983168652811515820286019350611133565b61110985610e3b565b60005b8381101561112b5781548189015260018201915060208101905061110c565b838801955050505b50505092915050565b600061114882846110b9565b91508190509291505056fe608060405234801561001057600080fd5b506000339050806000806101000a81548173ffffffffffffffffffffffffffffffffffffffff021916908373ffffffffffffffffffffffffffffffffffffffff1602179055508073ffffffffffffffffffffffffffffffffffffffff16600073ffffffffffffffffffffffffffffffffffffffff167f8be0079c531659141344cd1fd0a4f28419497f9722a3daafe3b4186f6b6457e060405160405180910390a350610c6a806100c16000396000f3fe608060405234801561001057600080fd5b506004361061004c5760003560e01c80638a119336146100515780638da5cb5b1461006d578063ef2b47cb1461008b578063f2fde38b146100bb575b600080fd5b61006b600480360381019061006691906105ea565b6100d7565b005b6100756101b8565b6040516100829190610684565b60405180910390f35b6100a560048036038101906100a0919061069f565b6101e1565b6040516100b29190610767565b60405180910390f35b6100d560048036038101906100d09190610789565b610291565b005b3373ffffffffffffffffffffffffffffffffffffffff166100f66101b8565b73ffffffffffffffffffffffffffffffffffffffff161461014c576040517f08c379a000000000000000000000000000000000000000000000000000000000815260040161014390610802565b60405180910390fd5b8060018460405161015d919061085e565b908152602001604051809103902090816101779190610a8b565b507fd78e300afdee35775c631df9bdd9fc0be7bdce285fbb384b46d47f6d9d4fd3118383836040516101ab93929190610b5d565b60405180910390a1505050565b60008060009054906101000a900473ffffffffffffffffffffffffffffffffffffffff16905090565b60606001826040516101f3919061085e565b9081526020016040518091039020805461020c906108a4565b80601f0160208091040260200160405190810160405280929190818152602001828054610238906108a4565b80156102855780601f1061025a57610100808354040283529160200191610285565b820191906000526020600020905b81548152906001019060200180831161026857829003601f168201915b50505050509050919050565b3373ffffffffffffffffffffffffffffffffffffffff166102b06101b8565b73ffffffffffffffffffffffffffffffffffffffff1614610306576040517f08c379a00000000000000000000000000000000000000000000000000000000081526004016102fd90610802565b60405180910390fd5b600073ffffffffffffffffffffffffffffffffffffffff168173ffffffffffffffffffffffffffffffffffffffff1603610375576040517f08c379a000000000000000000000000000000000000000000000000000000000815260040161036c90610c14565b60405180910390fd5b8073ffffffffffffffffffffffffffffffffffffffff1660008054906101000a900473ffffffffffffffffffffffffffffffffffffffff1673ffffffffffffffffffffffffffffffffffffffff167f8be0079c531659141344cd1fd0a4f28419497f9722a3daafe3b4186f6b6457e060405160405180910390a3806000806101000a81548173ffffffffffffffffffffffffffffffffffffffff021916908373ffffffffffffffffffffffffffffffffffffffff16021790555050565b6000604051905090565b600080fd5b600080fd5b600080fd5b600080fd5b6000601f19601f8301169050919050565b7f4e487b7100000000000000000000000000000000000000000000000000000000600052604160045260246000fd5b61049982610450565b810181811067ffffffffffffffff821117156104b8576104b7610461565b5b80604052505050565b60006104cb610432565b90506104d78282610490565b919050565b600067ffffffffffffffff8211156104f7576104f6610461565b5b61050082610450565b9050602081019050919050565b82818337600083830152505050565b600061052f61052a846104dc565b6104c1565b90508281526020810184848401111561054b5761054a61044b565b5b61055684828561050d565b509392505050565b600082601f83011261057357610572610446565b5b813561058384826020860161051c565b91505092915050565b600073ffffffffffffffffffffffffffffffffffffffff82169050919050565b60006105b78261058c565b9050919050565b6105c7816105ac565b81146105d257600080fd5b50565b6000813590506105e4816105be565b92915050565b6000806000606084860312156106035761060261043c565b5b600084013567ffffffffffffffff81111561062157610620610441565b5b61062d8682870161055e565b935050602061063e868287016105d5565b925050604084013567ffffffffffffffff81111561065f5761065e610441565b5b61066b8682870161055e565b9150509250925092565b61067e816105ac565b82525050565b60006020820190506106996000830184610675565b92915050565b6000602082840312156106b5576106b461043c565b5b600082013567ffffffffffffffff8111156106d3576106d2610441565b5b6106df8482850161055e565b91505092915050565b600081519050919050565b600082825260208201905092915050565b60005b83811015610722578082015181840152602081019050610707565b60008484015250505050565b6000610739826106e8565b61074381856106f3565b9350610753818560208601610704565b61075c81610450565b840191505092915050565b60006020820190508181036000830152610781818461072e565b905092915050565b60006020828403121561079f5761079e61043c565b5b60006107ad848285016105d5565b91505092915050565b7f4f776e61626c653a2063616c6c6572206973206e6f7420746865206f776e6572600082015250565b60006107ec6020836106f3565b91506107f7826107b6565b602082019050919050565b6000602082019050818103600083015261081b816107df565b9050919050565b600081905092915050565b6000610838826106e8565b6108428185610822565b9350610852818560208601610704565b80840191505092915050565b600061086a828461082d565b915081905092915050565b7f4e487b7100000000000000000000000000000000000000000000000000000000600052602260045260246000fd5b600060028204905060018216806108bc57607f821691505b6020821081036108cf576108ce610875565b5b50919050565b60008190508160005260206000209050919050565b60006020601f8301049050919050565b600082821b905092915050565b6000600883026109377fffffffffffffffffffffffffffffffffffffffffffffffffffffffffffffffff826108fa565b61094186836108fa565b95508019841693508086168417925050509392505050565b6000819050919050565b6000819050919050565b600061098861098361097e84610959565b610963565b610959565b9050919050565b6000819050919050565b6109a28361096d565b6109b66109ae8261098f565b848454610907565b825550505050565b600090565b6109cb6109be565b6109d6818484610999565b505050565b5b818110156109fa576109ef6000826109c3565b6001810190506109dc565b5050565b601f821115610a3f57610a10816108d5565b610a19846108ea565b81016020851015610a28578190505b610a3c610a34856108ea565b8301826109db565b50505b505050565b600082821c905092915050565b6000610a6260001984600802610a44565b1980831691505092915050565b6000610a7b8383610a51565b9150826002028217905092915050565b610a94826106e8565b67ffffffffffffffff811115610aad57610aac610461565b5b610ab782546108a4565b610ac28282856109fe565b600060209050601f831160018114610af55760008415610ae3578287015190505b610aed8582610a6f565b865550610b55565b601f198416610b03866108d5565b60005b82811015610b2b57848901518255600182019150602085019450602081019050610b06565b86831015610b485784890151610b44601f891682610a51565b8355505b6001600288020188555050505b505050505050565b60006060820190508181036000830152610b77818661072e565b9050610b866020830185610675565b8181036040830152610b98818461072e565b9050949350505050565b7f4f776e61626c653a206e6577206f776e657220697320746865207a65726f206160008201527f6464726573730000000000000000000000000000000000000000000000000000602082015250565b6000610bfe6026836106f3565b9150610c0982610ba2565b604082019050919050565b60006020820190508181036000830152610c2d81610bf1565b905091905056fea2646970667358221220061318762b6bcd0a5b693e2d57b10250b06b116e584b953674e46e34b7dee02e64736f6c63430008120033a26469706673582212204efcc1bc34aa1ae194e2dc2b8baae0b23ca198e8057b5f85bad4a52484b1e56764736f6c63430008120033",
  "immutableReferences": {},
  "source": "pragma solidity >=0.4.22 <=0.8.18;\nimport \"./PersonalIdentity.sol\";\npragma experimental ABIEncoderV2;\n\ncontract IdentityManager {\n    constructor() public {\n         for (uint i = 0; i < _orgsArr.length; i++) {\n             _orgs[_orgsArr[i]] = true;\n         }\n    }\n    modifier onlyOrg {\n        require(_orgs[msg.sender],\n                \"Only organization administrator can call.\");\n        _;\n    }\n    struct UserInfo {\n        //address lastModifyOrg;          // [org2.id]\n        address personalIdentityAddress;   // address of access control manager\n        address userAddress;            // binding addrss\n        uint userType;                  // user or org\n        //mapping(address => bool) orgs;  // [org1.id, org2.id]\n    }\n\n    address[] _orgsArr = [0xAc729d331241e90D8FB5a32944272BBE7D8Af542];\n    mapping (address => bool) _orgs;\n    mapping(string => UserInfo) _uniqueIdenity; // hash(id) map userAcc\n    mapping(string => bool) _uniqueState; // hash(id) is added by orgs  (addUser function)\n    mapping(address => string) _bindUsers; // address map hash(id)\n    mapping(string => bool) _bindState; // hash(id) not bind\n  \n\n    //event AddUserEvent(address orgAddress, uint status);\n    //event BindUserAccountEvent(address orgAddress, address userAccount, string hashed);\n\n    function addUser(string memory hashed, uint userType) public onlyOrg\n    {\n        if(!_uniqueState[hashed]) {\n            _uniqueState[hashed] = true;\n            UserInfo memory info = UserInfo(\n                                        address(0),\n                                        address(0),\n                                        userType\n                                    );\n            _uniqueIdenity[hashed] = info;\n        }\n    }\n\n    function bindAccount(string memory hashed,address userAddress) public onlyOrg\n    {\n        //bytes memory tempEmptyStringTest = bytes(emptyStringTest);\n        require(bytes(_bindUsers[userAddress]).length == 0,\n                \"This address already binded.\");\n        require(_bindState[hashed] == false,\n                \"This UniqueId already binded\");\n        require(_uniqueState[hashed],\n                \"UniqueId invalid.\"); // need execute add user first.\n                \n        _bindUsers[userAddress] = hashed;    // for record address <==> hashed id\n        _bindState[hashed] = true;           // for confirm this hashed id already bind before\n\n        // create contract and transfer ownership to user himself\n        PersonalIdentity personalIdentity = new PersonalIdentity();\n        personalIdentity.transferOwnership(userAddress);\n        \n        // update user info\n        _uniqueIdenity[hashed].personalIdentityAddress = address(personalIdentity);\n        _uniqueIdenity[hashed].userAddress = userAddress;\n\n    }\n\n    function getAccessManagerAddress(address userAddress) public view returns (address) {\n        return _uniqueIdenity[_bindUsers[userAddress]].personalIdentityAddress;\n    }\n\n    function getId() public view returns (string memory) {\n        return _bindUsers[msg.sender];\n    }\n    \n}",
  "sourcePath": "/Users/weiqi/Desktop/project/contracts/IdentityManager.sol",
  "compiler": {
    "name": "solc",
    "version": "0.8.18+commit.87f61d96.Emscripten.clang"
  },
  "schemaVersion": "3.4.12",
  "updatedAt": "2023-04-20T03:07:47.204Z",
  "networkType": "ethereum",
  "devdoc": {
    "kind": "dev",
    "methods": {},
    "version": 1
  },
  "userdoc": {
    "kind": "user",
    "methods": {},
    "version": 1
  }
}