{
  "contractName": "PersonalIdentity",
  "abi": [
    {
      "inputs": [],
      "stateMutability": "nonpayable",
      "type": "constructor"
    },
    {
      "anonymous": false,
      "inputs": [
        {
          "indexed": true,
          "internalType": "address",
          "name": "previousOwner",
          "type": "address"
        },
        {
          "indexed": true,
          "internalType": "address",
          "name": "newOwner",
          "type": "address"
        }
      ],
      "name": "OwnershipTransferred",
      "type": "event"
    },
    {
      "anonymous": false,
      "inputs": [
        {
          "indexed": false,
          "internalType": "string",
          "name": "Material",
          "type": "string"
        },
        {
          "indexed": false,
          "internalType": "address",
          "name": "org",
          "type": "address"
        },
        {
          "indexed": false,
          "internalType": "string",
          "name": "EncryptObject",
          "type": "string"
        }
      ],
      "name": "setEncryptMaterialEvent",
      "type": "event"
    },
    {
      "inputs": [],
      "name": "owner",
      "outputs": [
        {
          "internalType": "address",
          "name": "",
          "type": "address"
        }
      ],
      "stateMutability": "view",
      "type": "function"
    },
    {
      "inputs": [
        {
          "internalType": "address",
          "name": "newOwner",
          "type": "address"
        }
      ],
      "name": "transferOwnership",
      "outputs": [],
      "stateMutability": "nonpayable",
      "type": "function"
    },
    {
      "inputs": [
        {
          "internalType": "string",
          "name": "Material",
          "type": "string"
        },
        {
          "internalType": "address",
          "name": "org",
          "type": "address"
        },
        {
          "internalType": "string",
          "name": "EncryptObject",
          "type": "string"
        }
      ],
      "name": "setEncryptMaterial",
      "outputs": [],
      "stateMutability": "nonpayable",
      "type": "function"
    },
    {
      "inputs": [
        {
          "internalType": "string",
          "name": "Material",
          "type": "string"
        }
      ],
      "name": "getEncryptMaterial",
      "outputs": [
        {
          "internalType": "string",
          "name": "",
          "type": "string"
        }
      ],
      "stateMutability": "view",
      "type": "function"
    }
  ],
  "bytecode": "0x608060405234801561001057600080fd5b506000339050806000806101000a81548173ffffffffffffffffffffffffffffffffffffffff021916908373ffffffffffffffffffffffffffffffffffffffff1602179055508073ffffffffffffffffffffffffffffffffffffffff16600073ffffffffffffffffffffffffffffffffffffffff167f8be0079c531659141344cd1fd0a4f28419497f9722a3daafe3b4186f6b6457e060405160405180910390a350610c6a806100c16000396000f3fe608060405234801561001057600080fd5b506004361061004c5760003560e01c80638a119336146100515780638da5cb5b1461006d578063ef2b47cb1461008b578063f2fde38b146100bb575b600080fd5b61006b600480360381019061006691906105ea565b6100d7565b005b6100756101b8565b6040516100829190610684565b60405180910390f35b6100a560048036038101906100a0919061069f565b6101e1565b6040516100b29190610767565b60405180910390f35b6100d560048036038101906100d09190610789565b610291565b005b3373ffffffffffffffffffffffffffffffffffffffff166100f66101b8565b73ffffffffffffffffffffffffffffffffffffffff161461014c576040517f08c379a000000000000000000000000000000000000000000000000000000000815260040161014390610802565b60405180910390fd5b8060018460405161015d919061085e565b908152602001604051809103902090816101779190610a8b565b507fd78e300afdee35775c631df9bdd9fc0be7bdce285fbb384b46d47f6d9d4fd3118383836040516101ab93929190610b5d565b60405180910390a1505050565b60008060009054906101000a900473ffffffffffffffffffffffffffffffffffffffff16905090565b60606001826040516101f3919061085e565b9081526020016040518091039020805461020c906108a4565b80601f0160208091040260200160405190810160405280929190818152602001828054610238906108a4565b80156102855780601f1061025a57610100808354040283529160200191610285565b820191906000526020600020905b81548152906001019060200180831161026857829003601f168201915b50505050509050919050565b3373ffffffffffffffffffffffffffffffffffffffff166102b06101b8565b73ffffffffffffffffffffffffffffffffffffffff1614610306576040517f08c379a00000000000000000000000000000000000000000000000000000000081526004016102fd90610802565b60405180910390fd5b600073ffffffffffffffffffffffffffffffffffffffff168173ffffffffffffffffffffffffffffffffffffffff1603610375576040517f08c379a000000000000000000000000000000000000000000000000000000000815260040161036c90610c14565b60405180910390fd5b8073ffffffffffffffffffffffffffffffffffffffff1660008054906101000a900473ffffffffffffffffffffffffffffffffffffffff1673ffffffffffffffffffffffffffffffffffffffff167f8be0079c531659141344cd1fd0a4f28419497f9722a3daafe3b4186f6b6457e060405160405180910390a3806000806101000a81548173ffffffffffffffffffffffffffffffffffffffff021916908373ffffffffffffffffffffffffffffffffffffffff16021790555050565b6000604051905090565b600080fd5b600080fd5b600080fd5b600080fd5b6000601f19601f8301169050919050565b7f4e487b7100000000000000000000000000000000000000000000000000000000600052604160045260246000fd5b61049982610450565b810181811067ffffffffffffffff821117156104b8576104b7610461565b5b80604052505050565b60006104cb610432565b90506104d78282610490565b919050565b600067ffffffffffffffff8211156104f7576104f6610461565b5b61050082610450565b9050602081019050919050565b82818337600083830152505050565b600061052f61052a846104dc565b6104c1565b90508281526020810184848401111561054b5761054a61044b565b5b61055684828561050d565b509392505050565b600082601f83011261057357610572610446565b5b813561058384826020860161051c565b91505092915050565b600073ffffffffffffffffffffffffffffffffffffffff82169050919050565b60006105b78261058c565b9050919050565b6105c7816105ac565b81146105d257600080fd5b50565b6000813590506105e4816105be565b92915050565b6000806000606084860312156106035761060261043c565b5b600084013567ffffffffffffffff81111561062157610620610441565b5b61062d8682870161055e565b935050602061063e868287016105d5565b925050604084013567ffffffffffffffff81111561065f5761065e610441565b5b61066b8682870161055e565b9150509250925092565b61067e816105ac565b82525050565b60006020820190506106996000830184610675565b92915050565b6000602082840312156106b5576106b461043c565b5b600082013567ffffffffffffffff8111156106d3576106d2610441565b5b6106df8482850161055e565b91505092915050565b600081519050919050565b600082825260208201905092915050565b60005b83811015610722578082015181840152602081019050610707565b60008484015250505050565b6000610739826106e8565b61074381856106f3565b9350610753818560208601610704565b61075c81610450565b840191505092915050565b60006020820190508181036000830152610781818461072e565b905092915050565b60006020828403121561079f5761079e61043c565b5b60006107ad848285016105d5565b91505092915050565b7f4f776e61626c653a2063616c6c6572206973206e6f7420746865206f776e6572600082015250565b60006107ec6020836106f3565b91506107f7826107b6565b602082019050919050565b6000602082019050818103600083015261081b816107df565b9050919050565b600081905092915050565b6000610838826106e8565b6108428185610822565b9350610852818560208601610704565b80840191505092915050565b600061086a828461082d565b915081905092915050565b7f4e487b7100000000000000000000000000000000000000000000000000000000600052602260045260246000fd5b600060028204905060018216806108bc57607f821691505b6020821081036108cf576108ce610875565b5b50919050565b60008190508160005260206000209050919050565b60006020601f8301049050919050565b600082821b905092915050565b6000600883026109377fffffffffffffffffffffffffffffffffffffffffffffffffffffffffffffffff826108fa565b61094186836108fa565b95508019841693508086168417925050509392505050565b6000819050919050565b6000819050919050565b600061098861098361097e84610959565b610963565b610959565b9050919050565b6000819050919050565b6109a28361096d565b6109b66109ae8261098f565b848454610907565b825550505050565b600090565b6109cb6109be565b6109d6818484610999565b505050565b5b818110156109fa576109ef6000826109c3565b6001810190506109dc565b5050565b601f821115610a3f57610a10816108d5565b610a19846108ea565b81016020851015610a28578190505b610a3c610a34856108ea565b8301826109db565b50505b505050565b600082821c905092915050565b6000610a6260001984600802610a44565b1980831691505092915050565b6000610a7b8383610a51565b9150826002028217905092915050565b610a94826106e8565b67ffffffffffffffff811115610aad57610aac610461565b5b610ab782546108a4565b610ac28282856109fe565b600060209050601f831160018114610af55760008415610ae3578287015190505b610aed8582610a6f565b865550610b55565b601f198416610b03866108d5565b60005b82811015610b2b57848901518255600182019150602085019450602081019050610b06565b86831015610b485784890151610b44601f891682610a51565b8355505b6001600288020188555050505b505050505050565b60006060820190508181036000830152610b77818661072e565b9050610b866020830185610675565b8181036040830152610b98818461072e565b9050949350505050565b7f4f776e61626c653a206e6577206f776e657220697320746865207a65726f206160008201527f6464726573730000000000000000000000000000000000000000000000000000602082015250565b6000610bfe6026836106f3565b9150610c0982610ba2565b604082019050919050565b60006020820190508181036000830152610c2d81610bf1565b905091905056fea2646970667358221220061318762b6bcd0a5b693e2d57b10250b06b116e584b953674e46e34b7dee02e64736f6c63430008120033",
  "immutableReferences": {},
  "source": "pragma solidity >=0.4.22 <=0.8.18;\n\ncontract PersonalIdentity {\n    // reference: https://github.com/OpenZeppelin/openzeppelin-contracts/blob/master/contracts/access/Ownable.sol\n    address private _owner;\n    mapping(string=>string) _encryptMaterial;\n    \n    event OwnershipTransferred(address indexed previousOwner, address indexed newOwner);\n    event setEncryptMaterialEvent(string Material, address org, string EncryptObject);\n    \n    // remember to change public to internal\n    constructor () public {\n        address msgSender = msg.sender;\n        _owner = msgSender;\n        emit OwnershipTransferred(address(0), msgSender);\n    }\n    \n    function owner() public view returns (address) {\n        return _owner;\n    }\n    \n    modifier onlyOwner() {\n        require(owner() == msg.sender, \"Ownable: caller is not the owner\");\n        _;\n    }\n    \n    function transferOwnership(address newOwner) public onlyOwner {\n        require(newOwner != address(0), \"Ownable: new owner is the zero address\");\n        emit OwnershipTransferred(_owner, newOwner);\n        _owner = newOwner;\n    }\n\n    function setEncryptMaterial(string memory Material, address org, string memory EncryptObject) public onlyOwner{\n        _encryptMaterial[Material] = EncryptObject;\n        emit setEncryptMaterialEvent(Material,org,EncryptObject);\n    }\n\n    function getEncryptMaterial(string memory Material) public view returns(string memory) {\n        return _encryptMaterial[Material];\n    }\n}",
  "sourcePath": "/Users/weiqi/Desktop/project/contracts/PersonalIdentity.sol",
  "compiler": {
    "name": "solc",
    "version": "0.8.18+commit.87f61d96.Emscripten.clang"
  },
  "schemaVersion": "3.4.12",
  "updatedAt": "2023-03-02T11:13:55.072Z",
  "devdoc": {
    "kind": "dev",
    "methods": {},
    "version": 1
  },
  "userdoc": {
    "kind": "user",
    "methods": {},
    "version": 1
  }
}